:020000040000FA
:060000000A128A110E280D
:10000800FE00030EF2000408F3000A08F4000A12C6
:100018008A11D42E0A128A1111288313AB30FD00DD
:100028000730FE00F130FF00A03084000A128A1168
:10003800E2270A128A11E801E901EA01EB01EC0161
:10004800ED01EE01EF01F901FA01FB01FC01830169
:100058000A128A115A2F831203132C088039B1000F
:100068003108B6002C08B1003107B2003208BC00D4
:10007800AB1F3F28402841283C143C080319452859
:10008800462855283C0A031D4A284B285328003087
:10009800AC000030AB000030AA000030A900AB175C
:1000A8005D280030AC000030AB000030AA00003002
:1000B800A90030088039B1003108B6063008B1000F
:1000C8003107B2003208BB00AF1F6B286C286D28BF
:1000D8003B143B0803197128722881283B0A031D29
:1000E800762877287F280030B0000030AF00003035
:1000F800AE000030AD00AF1789280030B0000030E6
:10010800AF000030AE000030AD003B0803198D2869
:100118008E2893283C08031D922893289C28003099
:10012800AC000030AB000030AA000030A9008F2BD3
:100138002908B1003108A0002F080A128A151A26CA
:100148000A128A11831203132108C2002008C10071
:100158004108B100B201B301B4013408BA00330850
:10016800B9003208B8003108B7004208B100B2013E
:10017800B301B4013408C0003308BF003208BE0020
:100188003108BD002A08B1003108A0002E080A1263
:100198008A151A260A128A11831203132108C2002B
:1001A8002008C1004108B100B201B301B40131080F
:1001B800B707320803110318013E0319E428B807EA
:1001C800330803110318013E0319EB28B907340853
:1001D80003110318013E0319F228BA074208B100B7
:1001E800B201B301B4013108BD0732080311031885
:1001F800013E03190029BE07330803110318013E05
:1002080003190729BF07340803110318013E03190E
:100218000E29C0072B08B1003108A0002D080A12CA
:100228008A151A260A128A11831203132108C2009A
:100238002008C1004108B100B201B301B40131087E
:10024800B707320803110318013E03192C29B80710
:10025800330803110318013E03193329B907340879
:1002680003110318013E03193A29BA074208B100DD
:10027800B201B301B4013108BD07320803110318F4
:10028800013E03194829BE07330803110318013E2C
:1002980003194F29BF07340803110318013E031936
:1002A8005629C0070830B1000310B70DB80DB90DB5
:1002B800BA0DB10B58292A08B1003108A0002D0841
:1002C8000A128A151A260A128A11831203132108A0
:1002D800C2002008C1004108B1004208B200B301C1
:1002E800B4013108B707320803110318013E031996
:1002F8007E29B807330803110318013E031985291D
:10030800B907340803110318013E03198C29BA07E9
:100318002908B1003108A0002E080A128A151A26E9
:100328000A128A11831203132108C2002008C1008F
:100338004108B1004208B200B301B4013108B7075F
:10034800320803110318013E0319AB29B807330813
:1003580003110318013E0319B229B9073408031120
:100368000318013E0319B929BA070830B100031070
:10037800B70DB80DB90DBA0DB10BBB292908B100DD
:100388003108A0002D080A128A151A260A128A11A5
:10039800831203132108C2002008C1004108B100DC
:1003A8004208B200B301B4013108B707320803119B
:1003B8000318013E0319E129B8073308031103188C
:1003C800013E0319E829B907340803110318013E4F
:1003D8000319EF29BA072A08B1003108A0002F082D
:1003E8000A128A151A260A128A118312031321087F
:1003F800C2002008C1004108B1004208B200B301A0
:10040800B4013108BD07320803110318013E03196E
:100418000E2ABE07330803110318013E0319152AD3
:10042800BF07340803110318013E03191C2AC0072B
:100438002B08B1003108A0002E080A128A151A26C6
:100448000A128A11831203132108C2002008C1006E
:100458004108B1004208B200B301B4013108BD0738
:10046800320803110318013E03193B2ABE0733085B
:1004780003110318013E0319422ABF073408031168
:100488000318013E0319492AC0072B08B100310897
:10049800A0002F080A128A151A260A128A11831236
:1004A80003132108C2002008C1004108B100420816
:1004B800B200B301B40108300310B10DB20DB30D91
:1004C800B40DFF3E031D602A3108BD073208031131
:1004D8000318013E0319712ABE07330803110318D4
:1004E800013E0319782ABF07340803110318013E97
:1004F80003197F2AC0073708B1003808B200390845
:10050800B3003A08B40018300310B40CB30CB20CA2
:10051800B10CFF3E031D882A3108BD0732080311BC
:100528000318013E0319992ABE073308031103185B
:10053800013E0319A02ABF07340803110318013E1E
:100548000319A72AC0070830B1000310B70DB80D6A
:10055800B90DBA0DB10BA92A3C083B07B100B2018D
:10056800B20D3108823EC10032080318013EFF3E39
:10057800C200DB2A0130B1000310BD0DBE0DBF0D56
:10058800C00DB10BC02ABA1FCA2ACB2ACC2A3D14E7
:100598000130B1000310B70DB80DB90DBA0DB10B8C
:1005A800CE2AFF30C1070318C20AFF30C207BF1F97
:1005B800DE2ADF2ABE2ABB01BA1FE32AE42A002B5F
:1005C800FF303705B100FF303805B200FF3039057C
:1005D800B3007F303A05B4003408330432043104E0
:1005E8000319F72AF82AFB2ABB01BB0A002B3D1C7A
:1005F800FE2AFF2A002BF82A3B080319042B052B97
:10060800362B0130BD07003003180130BE0700301B
:1006180003180130BF07003003180130C007401C21
:10062800162B172B362B3D08B1003E08B2003F08A9
:10063800B3004008B4000130B500340DB40CB30C5D
:10064800B20CB10CB50B212B3408C0003308BF0025
:100658003208BE003108BD000130C1070318C20AC4
:100668000030C2074208803AFF0080307F02031D35
:100678003F2BFF304102031C422B432B4E2B7F3074
:1006880083120313C0008030BF000030BE0000306A
:10069800BD00832B831203134208803AFF00803089
:1006A8007F02031D592B0130410203185C2B5D2B7F
:1006B800692B003083120313C0000030BF000030E4
:1006C800BE000030BD00B601832B8312031341081E
:1006D800B1003108BC00FF30BD05FF30BE057F30DA
:1006E800BF050030C0053C1C7A2B7B2B7C2BBF1729
:1006F8003C08B1000310310CB2003208C0003608C3
:10070800B1003108C0044008AC003F08AB003E0807
:10071800AA003D08A900080083120313460880397F
:10072800CB004B08D3004608CB004B07CC004C0845
:10073800D500C51FA02BA12BA22B551455080319B2
:10074800A62BA72BB72B550A031DAB2BAC2BB42B11
:100758000030C6000030C5000030C4000030C300BF
:10076800C517C601BF2B0030C6000030C5000030D9
:10077800C4000030C3004A088039CB004B08D400BD
:10078800540853060319C92BCA2BCB2B53174A08F5
:10079800CB004B07CC004C08D400C91FD42BD52B59
:1007A800D62B541454080319DA2BDB2BEB2B540AE1
:1007B800031DDF2BE02BE82B0030CA000030C900F6
:1007C8000030C8000030C700C917CA01F32B003039
:1007D800CA000030C9000030C8000030C700550802
:1007E80054020318F82BF92B3D2C531FFC2BFD2B1F
:1007F800012C8030CB004B08D3065508CB004B08A2
:10080800D6005408CB004B08D5005608CB004B083F
:10081800D4004308CB004B08D6004708CB004B0850
:10082800C3005608CB004B08C7004408CB004B0850
:10083800D6004808CB004B08C4005608CB004B082C
:10084800C8004508CB004B08D6004908CB004B0828
:10085800C5005608CB004B08C9004608CB004B081A
:10086800D6004A08CB004B08C6005608CB004B08F8
:10087800CA00D6015408CB00CC014C08CE0055085C
:100888004B02CD00031CCE034E08803AFF00803097
:100898007F02031D512C1A304D02031C542C552C79
:1008A800922C831203134608450444044304031D91
:1008B8005E2C602C0130612C0030CB004B08D60038
:1008C8000030C6000030C5000030C4000030C3004E
:1008D8005408CB004B08D5009A2C561C742C752C48
:1008E8007E2C5608CB0003104B0C0138CC004C086A
:1008F800D600802C0310D60C431C832C842C852C0A
:10090800D6170130CB00460DC60CC50CC40CC30C61
:10091800CB0B872C0130CB004B08D5078312031370
:1009280054085502031C992C9A2C712C531B9D2C8E
:100938009E2CE92C5508031DA22CA32CAC2C0030AE
:10094800C6000030C5000030C4000030C300172EB8
:100958004708C307480803110318013E0319B52CBB
:10096800C407490803110318013E0319BC2CC50725
:100978004A0803110318013E0319C32CC607461C75
:10098800C62CC72C9D2D561CCA2CCB2CD42C5608F3
:10099800CB0003104B0C0138CC004C08D600D62CE9
:1009A8000310D60C431CD92CDA2CDB2CD6170130BB
:1009B800CB00460DC60CC50CC40CC30CCB0BDD2CF0
:1009C8000130CB004B08D5079D2D4608803AFF0023
:1009D8004A08803A7F02031DFB2C49084502031D83
:1009E800FB2C48084402031DFB2C4708430203184C
:1009F800FE2CFF2C572DFF30CB00FF30CC00FF30F2
:100A0800CD00FF30CE004708CF004808D000490885
:100A1800D1004A08D2004308CF024408031C440FFF
:100A2800162D172DD0024508031C450F1C2D1D2D12
:100A3800D1024608031C460F222D232DD2024F084F
:100A4800CB0750080318500F2A2D2B2DCC0751081F
:100A58000318510F302D312DCD0752080318520AB3
:100A6800CE074E08C6004D08C5004C08C4004B0808
:100A7800C3008030CB004B08D306D609D60A5608E7
:100A8800031D472D482D652D0130C307003003187D
:100A98000130C407003003180130C50700300318BF
:100AA8000130C607652D4708C3024808031C480FD4
:100AB800C4024908031C490FC5024A08031C4A0F0F
:100AC800C6024608450444044304031D6C2D6D2DDD
:100AD800992D5608031D712D722D992D0030C600D1
:100AE8000030C5000030C4000030C300172E0130AC
:100AF800CB000310C30DC40DC50DC60DCB0B7D2D4A
:100B0800D61F872D882D892D4314561C8C2D8D2D8D
:100B1800902D0314D60D922D0310D60D55080319E8
:100B2800962D972D992D0130D502C51F9C2D9D2DF1
:100B38007B2DD401D61FA12DA22DB02D56087F39AB
:100B48000319A72DA82DAB2DD401D40AB02D431C11
:100B5800AE2DAF2DB02DA82D54080319B42DB52DE9
:100B6800E92D0130C307003003180130C4070030F5
:100B780003180130C507003003180130C607461CAA
:100B8800C62DC72DE92D4308CB004408CC004508E5
:100B9800CD004608CE000130CF004E0DCE0CCD0C56
:100BA800CC0CCB0CCF0BD12D4E08C6004D08C50080
:100BB8004C08C4004B08C300550A0319E42DE52D61
:100BC800E92D0130CB004B08D507550A0319ED2D47
:100BD800EE2DF32D5508031DF22DF32D012E0030B7
:100BE800C6000030C5000030C4000030C3005508FE
:100BF800031DFF2D002E012ED301551C042E052E9A
:100C0800072EC5170B2E7F30CB004B08C50555089E
:100C1800CB0003104B0CCC004C08C600D31F152E7C
:100C2800162E172EC617080083120313A8002808CB
:100C380003191F2E202E342EA31F232E242E342ECC
:100C48002009AA002109AB002209AC002309AD0044
:100C5800AA0A0319AB0A0319AC0A0319AD0A3C2EF8
:100C68002308AD002208AC002108AB002008AA0028
:100C78002308220421042004031D432E442E4D2E54
:100C88000030A3000030A2000030A1000030A00016
:100C9800D32E9630A4002408A9005F2E0130A400AA
:100CA8002408A90701300310AD0CAC0CAB0CAA0C3E
:100CB800FF3E031D572EFE302D05031D642E652EA5
:100CC800522E812E0130A4002408A9070130AA075A
:100CD800003003180130AB07003003180130AC07AF
:100CE800003003180130AD0701300310AD0CAC0C17
:100CF800AB0CAA0CFF3E031D792EFF302D05031DFA
:100D0800862E872E662E932E0130A9020130A4006C
:100D18000310AA0DAB0DAC0DAD0DA40B8C2EAC1BA6
:100D2800962E972E9D2E0230290203189C2E9D2E5A
:100D3800882E2918A02EA12EA92EFF30AA05FF3033
:100D4800AB057F30AC05FF30AD050310A90C2908B1
:100D5800A400A501A601A70118300310A40DA50D34
:100D6800A60DA70DFF3E031DB12E2408AA042508D1
:100D7800AB042608AC042708AD0428080319C52EBF
:100D8800C62ECB2EA31FC92ECA2ECB2EAD172D08CB
:100D9800A3002C08A2002B08A1002A08A000080024
:100DA800831203130C1CD92EDA2E512F0C108F30FE
:100DB8008E00FD308F000130F9070318FA0A003061
:100DC800FA07412F861506160611EF1BEC2EED2E9D
:100DD800F22E6F08F6006E08F500FD2E6E09F00081
:100DE8006F09F100F00A0319F10A7008F50071089B
:100DF800F6007508A03E8400831300088800512F70
:100E0800061506168611ED1B0A2F0B2F102F6D08DD
:100E1800F8006C08F7001B2F6C09F0006D09F10051
:100E2800F00A0319F10A7008F7007108F80077084A
:100E3800A03E8400831300088800512FF901FA01AD
:100E4800061586150612EF1B2A2F2B2F342F02307A
:100E58006A3E8400840A8313801F332F342F3B2F6C
:100E6800831603132A08831203138800512F6A0874
:100E7800A03E840000088800512F7A08003A031920
:100E8800462F512F7908013A0319E62E033A031920
:100E9800042F013A0319222F512F74088A0073086E
:100EA8008400720E8300FE0E7E0E09002030831629
:100EB8000313860088018B170B170C148312031376
:100EC80010109015101690168F308E00FD308F0080
:100ED8001014831603131F149F141F159F158312D4
:100EE80003131F139F13831603139F1383120313F4
:100EF8009E011F148316031321088312031388000D
:100F0800831203139F111F129F121F1502308312A1
:100F18000313E600E60B8E2F0000831203131E084E
:100F2800E600E7016608E8006708E9006808A0002D
:100F38006908A1000030A11BFF30A200A300013006
:100F48000A128A1118260A128A1183120313230817
:100F5800DA002208D9002108D8002008D7000A1290
:100F68008A1543260A128A11831203135A08DE00CF
:100F78005908DD005808DC005708DB000A128A15FA
:100F880084270A128A11831203135C08FC005B0889
:100F9800FB007C08AA007B08A9006A30E600660806
:100FA800AB000A128A157C260A128A11842F0A12AB
:100FB8008A110E287E088A007F0882000A128A1188
:100FC800DE270A128A118000840A04087D060319A4
:100FD8000034FF0A0319FE0AE22FC034F934A4349E
:100FE800B034993492348234F834803490343F34B5
:101C340083120313A800A401A5012008A200A30194
:101C44002208A6002308A700281C292E2A2E302E9D
:101C54002608A4070318A50A2708A50701300310BE
:101C6400A60DA70DFF3E031D312E0310A80C280856
:101C7400031D3D2E3E2E262E2508A1002408A0007B
:101C84000800C23083120313C6005C30C500003064
:101C9400C4000030C3003F30AC004D30AB00CD3049
:101CA400AA00CE30A9005A08B0005908AF0058085D
:101CB400AE005708AD000A128A112F200A128A15A5
:101CC400831203132C08CA002B08C9002A08C80071
:101CD4002908C7000A128A1190230A128A1583124E
:101CE40003134608DA004508D9004408D80043081D
:101CF400D7000800831203132A08AF002908AE0096
:101D04000230B0000030B1000A30A0000030A10061
:101D14002F08A3002E08A2000A128A15C0260A1250
:101D24008A15831203133008AC002C072B07AD006F
:101D34002D088400200883138000840A2108800071
:101D44000A30A0000030A1002F08A3002E08A20032
:101D54000A128A151B270A128A15831203132108F3
:101D6400AF002008AE00FF30B0070318B10AFF30FF
:101D7400B107B11FBE2EBF2E862E08008312031397
:101D8400A601A31FC62EC72ECE2EA209A309A20AFE
:101D94000319A30AA601A60AA11FD12ED22ED72E5B
:101DA400A009A109A00A0319A10A20082104031902
:101DB400DC2EDD2E0C2FA501A50AEB2E013003101D
:101DC400A00DA10DFF3E031DE12E0130A400240847
:101DD400A507A11FEE2EEF2EE02E21082302031DDE
:101DE400F52E20082202031CF82EF92EFF2E2008BF
:101DF400A2022108031CA303A30201300310A10CB7
:101E0400A00CFF3E031D002F0130A502031D0B2F64
:101E14000C2FEF2E26080319102F112F162FA209AD
:101E2400A309A20A0319A30A2308A1002208A000F7
:101E3400080083120313A601A11F212F222F292F8B
:101E4400A009A109A00A0319A10AA601A60AA31FB1
:101E54002C2F2D2F362FA209A309A20A0319A30A96
:101E64000130A4002408A606A701A8012008210423
:101E740003193D2F3E2F752FA501A50A4C2F0130C4
:101E84000310A00DA10DFF3E031D422F0130A4003D
:101E94002408A507A11F4F2F502F412F01300310F5
:101EA400A70DA80DFF3E031D512F21082302031D7A
:101EB4005D2F20082202031C602F612F682F200849
:101EC400A2022108031CA303A30227140130031058
:101ED400A10CA00CFF3E031D692F0130A502031DB8
:101EE400742F752F502F26080319792F7A2F7F2FDF
:101EF400A709A809A70A0319A80A2808A1002708FE
:101F0400A00008000310831203135D0D5E0DDF00B3
:101F14005F08E5006508031D902F912F9A2F00306C
:101F2400DE000030DD000030DC000030DB00FF2F7D
:101F34005B08DF005C08E0005D08E1005E08E20089
:101F44001F300310E20CE10CE00CDF0CFF3E031D1C
:101F5400A32F5F08E3006308E400DD17FF30DB050F
:101F6400FF30DC05FF30DD050030DE059630E5028C
:101F7400E51FBD2FBE2FD82F6508803A973E031862
:101F8400C42FC52FC62F912F01300310DE0CDD0C9A
:101F9400DC0CDB0CFF3E031DC72F0130DF005F08A4
:101FA400E507031DD62FD72FC62FEF2F203065024C
:101FB400031CDD2FDE2FEA2F912F0130DF000310E9
:101FC400DB0DDC0DDD0DDE0DDF0BE12F0130E50255
:101FD4006508031DEE2FEF2FDF2F64080319F32F7D
:101FE400F42FFF2FDB09DC09DD09DE09DB0A031905
:0C1FF400DC0A0319DD0A0319DE0A0800EC
:02400E00F23F7F
:00000001FF
