:020000040000FA
:060000000A128A1110280B
:10000800FE00030EF3000A08F400831203137F08AE
:10001800F5000A128A1119280A128A111328FA01FE
:10002800FB0183010A128A118D288B1C1C281D28AC
:1000380082280130FA000030FB00061D24282528FC
:100048004A288618282829284A28F601F7010A127A
:100058008A11EB200A128A110130F6070318F70AF1
:100068000030F7077708803AFF0080307F02031DD1
:100078003F280A307602031C422843282B28831283
:10008800031308178813081588105628061D4D28CD
:100098004E285628861C5128522856280817881397
:1000A800081588108312031306195B285C287B281F
:1000B8008813081308118810F801F9010A128A1127
:1000C800EB200A128A110130F8070318F90A0030E8
:1000D800F9077908803AFF0080307F02031D7628EF
:1000E8000A307802031C79287A28622881280A12A3
:1000F8008A11EB200A128A1156288B107508831270
:100108000313FF0074088A00730E8300FE0E7E0E30
:100118000900FF3083160313860088017F308100B1
:1001280001178B170B168312031388100811081078
:1001380088130813831203138619A328A428A9284F
:100148000A128A11BC200A128A117A087B04031940
:10015800AE28AF28B6288312031388100811081098
:1001680088130813FA01FB019E280A128A11102825
:10017800831203130811881488170813E4288618B3
:10018800C628C728E4288813881008130811861D74
:10019800CE28CF28EA28293083120313A2009630EC
:1001A800A1007E30A000A00BD728A10BD728A20B56
:1001B800D72800000A128A1110210A128A11EA2887
:1001C8007A087B040319E928EA28C328080083125F
:1001D80003138814081108140330F2008A30F10060
:1001E8005530F000F00BF628F10BF628F20BF62844
:1001F800FD28831203138810081508100330F20035
:100208008A30F1005530F000F00B0829F10B08296D
:10021800F20B08290F290800831203138810081508
:1002280008178813202906191A291B292029881339
:1002380088100813081126297A087B040319252930
:0602480026291729080019
:00000001FF
