:020000040000FA
:060000000A128A11FC2F18
:100ED400F300730884000008F000840A0008F1009D
:100EE400700871040319772F782F922F0230F200C3
:100EF4004530F100A930F000F00B7E2FF10B7E2F6E
:100F0400F20B7E2F852F73088400FF308007840F37
:100F140000080318000AFF00FF307F0780008403E5
:100F24000800F300730884000008F000840A000835
:100F3400F1007108803AFF0080307F02031DA42F66
:100F44000A3070020318A72FA82FBC2F0230F2001A
:100F54004530F100A930F000F00BAE2FF10BAE2FAD
:100F6400F20BAE2FB52F7308840001308007840A7A
:100F74000318800A080007308316031386008801CB
:100F84007F308100F401F5018312031308108810E7
:100F94008618CD2FCE2FD52F74300A128A1193279D
:100FA4000A128A11DF2F0619D82FD92FDF2F743098
:100FB4000A128A116A270A128A110A307406750401
:100FC400031DE52FE62FEA2F831203130814CA2FFB
:100FD40074087504031DEF2FF02FF42F83120313ED
:100FE4008814CA2F8312031308108810CA2F0A12F8
:0C0FF4008A11002883010A128A11BD2F07
:00000001FF
