:020000040000FA
:060000000A128A110C280F
:10000800FE00030EF3000A08F4000A128A1164289D
:100018000A128A110F2883010A128A1142287818B5
:10002800162817282828831203138814081010305C
:10003800F7003930F6000D30F500F50B2128F60BE6
:100048002128F70B2128282878182B282C283D2828
:1000580083120313881008141030F7003930F600A3
:100068000D30F500F50B3628F60B3628F70B362839
:100078003D288312031308108810080007308316E0
:100088000313860088017F30810001178B170B1638
:10009800831203130810881078108312031386182C
:1000A80056285728502806195A285B2850280A121B
:1000B8008A1113200A128A1150280A128A110C2850
:1000C8008B1C672868287F287814831203138810EC
:1000D80008141030F2003930F1000D30F000F00B48
:1000E8007328F10B7328F20B73287A2883120313F1
:1000F800881008108B1074088A00730E8300FE0E97
:040108007E0E09005E
:00000001FF
