:020000040000FA
:060000000A128A110C280F
:10000800FE00030EF0000A08F1000A128A11B32854
:100018000A128A110F28FB0183010A128A117E280D
:1000280083120313861919281A284B280330F7005E
:100038008A30F6005530F500F50B2028F60B2028FD
:10004800F70B202827288312031308108810023082
:10005800F7000430F600BA30F500F50B3128F60B3E
:100068003128F70B31280000831203138817293031
:10007800F7009630F6007F30F500F50B4128F60BB7
:100088004128F70B412883120313881350287B1C3F
:100098004E284F28142855280A128A119E200A1221
:1000A8008A1108000330FA008A30F9005530F80048
:1000B800F80B5C28F90B5C28FA0B5C286328831280
:1000C800031308134130F900EE30F800F80B6A28E2
:1000D800F90B6A28000083120313081488147B1C88
:1000E8007628772878287D280A128A1114200A127F
:1000F8008A110800FF3083160313860088017F30B9
:10010800810001178B170B16831203130810881030
:1001180008178611831203138618932894289928A0
:100128000A128A1156200A128A117B108E280A1286
:100138008A110C288312031308171A30F4005E3052
:10014800F3006E30F200F20BA728F30BA728F40B8C
:10015800A7280000831203130810881008008B1CBE
:10016800B628B728BF287B14831203130817081072
:10017800881088138B1071088A00700E8300FE0E99
:040188007E0E0900DE
:00000001FF
