:020000040000FA
:060000000A128A110C280F
:10000800FE00030EF5000A08F6000A128A111628E7
:100018000A128A110F28F901F701F80183010A125F
:100028008A114A28831603130C1C1B281C284328F2
:10003800831203130C10DC308E000B308F0001305C
:10004800F7070318F80A0030F80714307706780421
:10005800031D2F283028432879140812F701F801C6
:1000680010108230F400DD30F300F30B3928F40B64
:1000780039283E280A128A1188200A128A1176081D
:100088008A00750E8300FE0E7E0E0900FF3083166F
:1000980003138600880181138B170B170C14831226
:1000A80003139010101690160814DC308E000B30D5
:1000B8008F008312031306186228632869280A121E
:1000C8008A1172200A128A115D280A128A119E204A
:1000D8000A128A115D280A128A110C288312031346
:1000E80088138619782879288528081310187D28F8
:1000F8007E288728791881288228872808161014CE
:1001080087280817791008008312031308120813A8
:1001180008100B30F2002630F1005D30F000F00BD3
:100128009328F10B9328F20B93289A288312031330
:10013800081408008312031388170812081308000C
:00000001FF
