:020000040000FA
:060000000A128A11122809
:10000800FE00030E83120313A3000408A4000A08C9
:10001800A5007F08A6000A128A15432C0A128A1125
:100028001528FC0183120313E201E301E401E50151
:10003800E601E70183160313D201D301D401D501E8
:10004800D601D701D801D901DA01DB0183010A12EF
:100058008A155F2A8312031333088039B8003808D9
:10006800BD003308B8003807B9003908C300B21F0B
:100078003E283F28402843144308031944284528AC
:100088005428430A031D49284A2852280030B3003F
:100098000030B2000030B1000030B000B2175C2868
:1000A8000030B3000030B2000030B1000030B000C2
:1000B80037088039B8003808BD063708B80038074F
:1000C800B9003908C200B61F6A286B286C28421488
:1000D80042080319702871288028420A031D7528D0
:1000E80076287E280030B7000030B6000030B50012
:1000F8000030B400B61788280030B7000030B600CA
:100108000030B5000030B400420803198C288D284F
:1001180092284308031D912892289B280030B30099
:100128000030B2000030B1000030B0008E2B300833
:10013800B8003808A70036080A168A1107260A12D6
:100148008A11831203132808C9002708C800480821
:10015800B800B901BA01BB013B08C1003A08C000A8
:100168003908BF003808BE004908B800B901BA010B
:10017800BB013B08C7003A08C6003908C500380863
:10018800C4003108B8003808A70035080A168A11D3
:1001980007260A128A11831203132808C9002708A0
:1001A800C8004808B800B901BA01BB013808BE0741
:1001B800390803110318013E0319E328BF073A0859
:1001C80003110318013E0319EA28C0073B0803116D
:1001D8000318013E0319F128C1074908B800B901FD
:1001E800BA01BB013808C407390803110318013ED6
:1001F8000319FF28C5073A0803110318013E03191C
:100208000629C6073B0803110318013E03190D29E7
:10021800C7073208B8003808A70034080A168A1138
:1002280007260A128A11831203132808C90027080F
:10023800C8004808B800B901BA01BB013808BE07B0
:10024800390803110318013E03192B29BF073A087F
:1002580003110318013E03193229C0073B08031193
:100268000318013E03193929C1074908B800B90123
:10027800BA01BB013808C407390803110318013E45
:1002880003194729C5073A0803110318013E031942
:100298004E29C6073B0803110318013E03195529C7
:1002A800C7070830B8000310BE0DBF0DC00DC10D43
:1002B800B80B57293108B8003808A70034080A16BF
:1002C8008A1107260A128A11831203132808C90003
:1002D8002708C8004808B8004908B900BA01BB0196
:1002E8003808BE07390803110318013E03197D2990
:1002F800BF073A0803110318013E03198429C007F0
:100308003B0803110318013E03198B29C107300864
:10031800B8003808A70035080A168A1107260A12F5
:100328008A11831203132808C9002708C80048083F
:10033800B8004908B900BA01BB013808BE07390836
:1003480003110318013E0319AA29BF073A0803112C
:100358000318013E0319B129C0073B08031103180C
:10036800013E0319B829C1070830B8000310BE0DB3
:10037800BF0DC00DC10DB80BBA293008B800380838
:10038800A70034080A168A1107260A128A1183124E
:1003980003132808C9002708C8004808B8004908F6
:1003A800B900BA01BB013808BE07390803110318A0
:1003B800013E0319E029BF073A0803110318013E5B
:1003C8000319E729C0073B0803110318013E031965
:1003D800EE29C1073108B8003808A70036080A1600
:1003E8008A1107260A128A11831203132808C900E2
:1003F8002708C8004808B8004908B900BA01BB0175
:100408003808C407390803110318013E03190D2AD7
:10041800C5073A0803110318013E0319142AC60731
:100428003B0803110318013E03191B2AC7073208AA
:10043800B8003808A70035080A168A1107260A12D4
:100448008A11831203132808C9002708C80048081E
:10045800B8004908B900BA01BB013808C40739080F
:1004680003110318013E03193A2AC5073A08031174
:100478000318013E0319412AC6073B080311031854
:10048800013E0319482AC7073208B8003808A700F0
:1004980036080A168A1107260A128A1183120313CC
:1004A8002808C9002708C8004808B8004908B90042
:1004B800BA01BB0108300310B80DB90DBA0DBB0D58
:1004C800FF3E031D5F2A3808C407390803110318C3
:1004D800013E0319702AC5073A0803110318013EA3
:1004E8000319772AC6073B0803110318013E0319AD
:1004F8007E2AC7073E08B8003F08B9004008BA007E
:100508004108BB0018300310BB0CBA0CB90CB80C6E
:10051800FF3E031D872A3808C4073908031103184A
:10052800013E0319982AC5073A0803110318013E2A
:1005380003199F2AC6073B0803110318013E031934
:10054800A62AC7070830B8000310BE0DBF0DC00D9E
:10055800C10DB80BA82A43084207B800B901B90D64
:100568003808823EC80039080318013EFF3EC9001A
:10057800DA2A0130B8000310C40DC50DC60DC70D29
:10058800B80BBF2AC11FC92ACA2ACB2A4414013072
:10059800B8000310BE0DBF0DC00DC10DB80BCD2A9C
:1005A800FF30C8070318C90AFF30C907C61FDD2A6C
:1005B800DE2ABD2AC201C11FE22AE32AFF2AFF3030
:1005C8003E05B800FF303F05B900FF304005BA00CE
:1005D8007F304105BB003B083A043904380403194D
:1005E800F62AF72AFA2AC201C20AFF2A441CFD2A5F
:1005F800FE2AFF2AF72A42080319032B042B352B5E
:100608000130C407003003180130C5070030031853
:100618000130C607003003180130C707471C152BE7
:10062800162B352B4408B8004508B9004608BA000F
:100638004708BB000130BC003B0DBB0CBA0CB90C21
:10064800B80CBC0B202B3B08C7003A08C600390879
:10065800C5003808C4000130C8070318C90A0030AB
:10066800C9074908803AFF0080307F02031D3E2BEE
:10067800FF304802031C412B422B4D2B7F30831245
:100688000313C7008030C6000030C5000030C40026
:10069800822B831203134908803AFF0080307F02BF
:1006A800031D582B0130480203185B2B5C2B682B69
:1006B800003083120313C7000030C6000030C500A5
:1006C8000030C400BD01822B831203134808B80010
:1006D8003808C300FF30C405FF30C5057F30C605A4
:1006E8000030C705431C792B7A2B7B2BC617430890
:1006F800B8000310380CB9003908C7003D08B80025
:100708003808C7044708B3004608B2004508B100D6
:100718004408B0000800831203134D088039D20042
:100728005208DA004D08D2005207D3005308DC0003
:10073800CC1F9F2BA02BA12B5C145C080319A52BA5
:10074800A62BB62B5C0A031DAA2BAB2BB32B0030B0
:10075800CD000030CC000030CB000030CA00CC17F0
:10076800CD01BE2B0030CD000030CC000030CB00D6
:100778000030CA0051088039D2005208DB005B08FB
:100788005A060319C82BC92BCA2B5A175108D2006D
:100798005207D3005308DB00D01FD32BD42BD52B03
:1007A8005B145B080319D92BDA2BEA2B5B0A031DB0
:1007B800DE2BDF2BE72B0030D1000030D0000030DB
:1007C800CF000030CE00D017D101F22B0030D1007D
:1007D8000030D0000030CF000030CE005C085B0253
:1007E8000318F72BF82B3C2C5A1FFB2BFC2B002C47
:1007F8008030D2005208DA065C08D2005208DD00C8
:100808005B08D2005208DC005D08D2005208DB0009
:100818004A08D2005208DD004E08D2005208CA0029
:100828005D08D2005208CE004B08D2005208DD0005
:100838004F08D2005208CB005D08D2005208CF0002
:100848004C08D2005208DD005008D2005208CC00F3
:100858005D08D2005208D0004D08D2005208DD00D1
:100868005108D2005208CD005D08D2005208D100CC
:10087800DD015B08D200D3015308D5005C085202A1
:10088800D400031CD5035508803AFF0080307F024E
:10089800031D502C1A305402031C532C542C912C39
:1008A800831203134D084C044B044A04031D5D2CAA
:1008B8005F2C0130602C0030D2005208DD0000307F
:1008C800CD000030CC000030CB000030CA005B08FF
:1008D800D2005208DC00992C5D1C732C742C7D2CE2
:1008E8005D08D2000310520C0138D3005308DD0014
:1008F8007F2C0310DD0C4A1C822C832C842CDD17E2
:100908000130D2004D0DCD0CCC0CCB0CCA0CD20B47
:10091800862C0130D2005208DC07831203135B08CF
:100928005C02031C982C992C702C5A1B9C2C9D2C17
:10093800E82C5C08031DA12CA22CAB2C0030CD00A8
:100948000030CC000030CB000030CA00162E4E0814
:10095800CA074F0803110318013E0319B42CCB072B
:10096800500803110318013E0319BB2CCC0751088A
:1009780003110318013E0319C22CCD074D1CC52CC9
:10098800C62C9C2D5D1CC92CCA2CD32C5D08D2000A
:100998000310520C0138D3005308DD00D52C031086
:1009A800DD0C4A1CD82CD92CDA2CDD170130D200EA
:1009B8004D0DCD0CCC0CCB0CCA0CD20BDC2C013061
:1009C800D2005208DC079C2D4D08803AFF005108E0
:1009D800803A7F02031DFA2C50084C02031DFA2CA2
:1009E8004F084B02031DFA2C4E084A020318FD2C2F
:1009F800FE2C562DFF30D200FF30D300FF30D4003C
:100A0800FF30D5004E08D6004F08D7005008D80050
:100A18005108D9004A08D6024B08031C4B0F152D64
:100A2800162DD7024C08031C4C0F1B2D1C2DD80269
:100A38004D08031C4D0F212D222DD9025608D2072F
:100A480057080318570F292D2A2DD30758080318BC
:100A5800580F2F2D302DD40759080318590AD507D8
:100A68005508CD005408CC005308CB005208CA00E2
:100A78008030D2005208DA06DD09DD0A5D08031D60
:100A8800462D472D642D0130CA0700300318013068
:100A9800CB07003003180130CC07003003180130B1
:100AA800CD07642D4E08CA024F08031C4F0FCB0216
:100AB8005008031C500FCC025108031C510FCD02E3
:100AC8004D084C044B044A04031D6B2D6C2D982DC6
:100AD8005D08031D702D712D982D0030CD0000305C
:100AE800CC000030CB000030CA00162E0130D200F6
:100AF8000310CA0DCB0DCC0DCD0DD20B7C2DDD1FF7
:100B0800862D872D882D4A145D1C8B2D8C2D8F2DBD
:100B18000314DD0D912D0310DD0D5C080319952DCF
:100B2800962D982D0130DC02CC1F9B2D9C2D7A2D03
:100B3800DB01DD1FA02DA12DAF2D5D087F39031925
:100B4800A62DA72DAA2DDB01DB0AAF2D4A1CAD2D42
:100B5800AE2DAF2DA72D5B080319B32DB42DE82DAD
:100B68000130CA07003003180130CB0700300318E2
:100B78000130CC07003003180130CD074D1CC52DBE
:100B8800C62DE82D4A08D2004B08D3004C08D400E3
:100B98004D08D5000130D600550DD50CD40CD30C1A
:100BA800D20CD60BD02D5508CD005408CC005308D4
:100BB800CB005208CA005C0A0319E32DE42DE82D86
:100BC8000130D2005208DC075C0A0319EC2DED2D28
:100BD800F22D5C08031DF12DF22D002E0030CD0002
:100BE8000030CC000030CB000030CA005C08031D88
:100BF800FE2DFF2D002EDA015C1C032E042E062E7E
:100C0800CC170A2E7F30D2005208CC055C08D200DF
:100C18000310520CD3005308CD00DA1F142E152EE2
:100C2800162ECD17080064008316031352035304CD
:100C3800031D1F2E202ECF2E023054065504031DEF
:100C4800262E272ECF2E033056065704031D2D2E91
:100C58002E2ECF2E043058065904031D342E352E5F
:100C6800CF2E8B12831203138810861708100A16CA
:100C78008A1173250A128A1183120313AB01AB0A76
:100C880001300A128A15B5200A128A112C308312F3
:100C98000313AC008030AD000A168A1122270A120D
:100CA8008A1164000B3083120313B7002630B60094
:100CB8005D30B500B50B5E2EB60B5E2EB70B5E2E03
:100CC8000A168A1173250A128A1183120313AB01BB
:100CD800AB0A01300A128A15B5200A128A11763039
:100CE80083120313AC008030AD000A168A11222744
:100CF8000A128A1183120313AB01AB0A02300A12DB
:100D08008A15B5200A128A116C3083120313AC00BD
:100D18008030AD000A168A1122270A128A1164004F
:100D28000B3083120313B7002630B6005D30B500D0
:100D3800B50B9C2EB60B9C2EB70B9C2E831203135F
:100D4800B801B901831203133808B5003507D23E3C
:100D5800840083138001840A80010130B8070318D6
:100D6800B90A0030B9073908803AFF0080307F029D
:100D7800031DC02E04303802031CC32EC42EA62E19
:100D8800FC1083120313E601E7017C100130B30065
:100D98000030B400222F83120313BA01BB0183125F
:100DA80003133A08B5003507D23E84008313800147
:100DB800840A80010130BA070318BB0A0030BB0758
:100DC8003B08803AFF0080307F02031DED2E04307F
:100DD8003A02031CF02EF12ED32E83120313E601E0
:100DE800E7010A168A1173250A128A11831203135E
:100DF800AB01AB0A01300A128A15B5200A128A1112
:100E08000B3083120313AC008030AD000A168A1130
:100E180022270A128A1164000B3083120313B700C9
:100E28002630B6005D30B500B50B182FB60B182F5D
:100E3800B70B182F83120313B301B40108008312F0
:100E48000313AF002F0803192A2F2B2F3F2FAA1F98
:100E58002E2F2F2F3F2F2709B1002809B20029096B
:100E6800B3002A09B400B10A0319B20A0319B30A74
:100E78000319B40A472F2A08B4002908B300280820
:100E8800B2002708B1002A08290428042704031DF2
:100E98004E2F4F2F582F0030AA000030A9000030E5
:100EA800A8000030A700DE2F9630AB002B08B0005A
:100EB8006A2F0130AB002B08B00701300310B40CC7
:100EC800B30CB20CB10CFF3E031D622FFE3034058B
:100ED800031D6F2F702F5D2F8C2F0130AB002B0857
:100EE800B0070130B107003003180130B2070030F5
:100EF80003180130B307003003180130B40701307C
:100F08000310B40CB30CB20CB10CFF3E031D842FBC
:100F1800FF303405031D912F922F712F9E2F013022
:100F2800B0020130AB000310B10DB20DB30DB40D1A
:100F3800AB0B972FB31BA12FA22FA82F0230300283
:100F48000318A72FA82F932F3018AB2FAC2FB42F2F
:100F5800FF30B105FF30B2057F30B305FF30B4056F
:100F68000310B00C3008AB00AC01AD01AE01183075
:100F78000310AB0DAC0DAD0DAE0DFF3E031DBC2F28
:100F88002B08B1042C08B2042D08B3042E08B404AD
:100F98002F080319D02FD12FD62FAA1FD42FD52F22
:100FA800D62FB4173408AA003308A9003208A800BD
:100FB8003108A700080083120313A700271CE52F98
:100FC800E62FE82F0816E92F0812A71CEC2FED2FA3
:100FD800EF2F8816F02F8812271DF32FF42FF62FE6
:100FE8000817F72F0813A71DFA2FFB2FFD2F8817B7
:060FF800FE2F8813080023
:10100000FF1B0A2883137F1883170008840A03191B
:10101000FF0A080008308A000408840A82070034A6
:10102000013400340A34003464340034E8340334C6
:1010300010342734533465346E34683461342034CA
:1010400069346E3463346F3472347234653474349A
:10105000613421340034443469346734693474347D
:101060006534203461342034733465346E3468342C
:1010700061343A340034533465346E346834613446
:10108000203443346F3472347234653474346134D0
:101090002134003466346F3469342034613474345C
:1010A00069347634613464346F342134203400344C
:1010B000643465347334613474346934763461343F
:1010C00064346F34213420340034543465346D3446
:1010D0007034203441347434753461346C343A34AF
:1010E00000345334613466346534203448346F340A
:1010F0006D3465340034443465347334613472348F
:101100006D34613464346F3400345334693473346F
:10111000743465346D3461340034413472346D3468
:0E112000613464346F34003425346434003498
:1011320083120313AA0088112A080A128A11DF27D0
:101142000A128A1583120313081506308312031339
:10115200A9002F30A800A80BAC28A90BAC28B128F5
:10116200831203130811080083120313AE002E0327
:10117200031DBC28BD28E2282B087F3EAC002C08AA
:10118200B1003108AC0004300310AC0CFF3E031D6B
:10119200C5282C08AD002D08AF0031080F39AC006E
:1011A2002C08B0002F080A128A1599200A128A15F3
:1011B2008312031330080A128A1599200A128A151B
:1011C2000C2902302E06031DE728E8280C292B08DB
:1011D200BF3EAC002C08B1003108AC000430031053
:1011E200AC0CFF3E031DF0282C08AD002D08AF000B
:1011F20031080F39AC002C08B0002F080A128A15EA
:1012020099200A128A158312031330080A128A15CA
:1012120099200A128A150800831603132A088312DA
:101222000313B70083160313290883120313B600AE
:1012320083160313280883120313B50083160313BE
:10124200270883120313B4003F30B3004D30B200BD
:10125200CD30B100CE30B0000A128A112E200A120F
:101262008A15831203133308D1003208D0003108E3
:10127200CF003008CE00C230CD005C30CC00003050
:10128200CB000030CA000A128A118F230A128A1573
:10129200831203134D08E1004C08E0004B08DF0005
:1012A2004A08DE000A128A15FB220A128A158312E4
:1012B20003135F0883160313A800831203135E0847
:1012C20083160313A700080000300A128A11DF27D1
:1012D2000A128A151A3083120313AC00F730AB00DE
:1012E200AB0B7129AC0B7129762903300A128A15CE
:1012F20099200A128A15073083120313AC007C303E
:10130200AB00AB0B8229AC0B8229000003300A121E
:101312008A1599200A128A150F3083120313AC0022
:101322004730AB00AB0B9329AC0B932903300A1265
:101332008A1599200A128A1502300A128A159920F2
:101342000A128A1502300A128A1599200A128A157F
:1013520008300A128A1599200A128A1500300A12D8
:101362008A1599200A128A150C300A128A159920B8
:101372000A128A1500300A128A1599200A128A1551
:1013820006300A128A1599200A128A15080064008A
:101392000A168A1173250A128A1583120313AB01E6
:1013A200AB0A01300A128A15B5200A128A15563084
:1013B20083120313AC008030AD000A168A11222773
:1013C2000A128A1583120313AB01AB0A02300A1206
:1013D2008A15B5200A128A15831203131F150530C8
:1013E20083160313B800B80BF429F72983120313E9
:1013F2001E0883160313B800B9013808DA00390849
:10140200DB008530B8003808AB005A08831203139A
:10141200A700831603135B0883120313A80000308E
:10142200A81BFF30A900AA0001300A128A11232743
:101432000A128A15831203132A0883160313AA00B9
:1014420083120313290883160313A90083120313BB
:10145200280883160313A800831203132708831690
:101462000313A7000A128A150D210A128A15831680
:1014720003132808AD002708AC00BB300A128A15F6
:10148200F2240A128A15BB3083120313AC00003017
:10149200AD000A168A1122270A128A156400033047
:1014A20083160313BA008A30B9005530B800B80B5E
:1014B200582AB90B582ABA0B582A08000A168A1158
:1014C2008F250A128A150A128A1565210A128A15AF
:1014D20083120313AB01AB0A01300A128A15B5203D
:1014E2000A128A15623083120313AC008030AD00F9
:1014F2000A168A1122270A128A1583120313AB01D4
:10150200AB0A02300A128A15B5200A128A1549302E
:1015120083120313AC008030AD000A168A11222711
:101522000A128A15831203130810861764008312A5
:10153200031386199D2A9E2A972A7C150A168A1158
:1015420073250A128A1583120313AB01AB0A013009
:101552000A128A15B5200A128A1562308312031301
:10156200AC008030AD000A168A1122270A128A15B1
:1015720083120313AB01AB0A02300A128A15B5209B
:101582000A128A153B3083120313AC008030AD007F
:101592000A168A1122270A128A1583120313AB0133
:1015A200AB0A01300A128A15B5200A128A156400A4
:1015B200063083160313D1001330D000AD30CF00B4
:1015C200CF0BE12AD00BE12AD10BE12AF32A0A122E
:1015D2008A1599230A128A150A128A15C8210A1233
:1015E2008A1564007C19F62AF72AE82A972A0A1231
:1015F2008A111228031083120313600D610D8316E2
:101602000313A0002008A6002608031D092B0A2B9D
:10161200152B003083120313E1000030E00000308C
:10162200DF000030DE00982B831203135E0883165E
:101632000313A000831203135F0883160313A10090
:1016420083120313600883160313A2008312031389
:10165200610883160313A3001F300310A30CA20C0E
:10166200A10CA00CFF3E031D2E2B2008A400240871
:10167200A50083120313E017FF30DE05FF30DF05FC
:10168200FF30E0050030E105963083160313A60211
:10169200A61F4C2B4D2B6B2B2608803A973E031826
:1016A200532B542B552B0A2B013003108312031397
:1016B200E10CE00CDF0CDE0CFF3E031D562B01306B
:1016C20083160313A0002008A607031D692B6A2BAB
:1016D200552B862B20302602031C702B712B812B5D
:1016E2000A2B0130A000031083120313DE0DDF0D5D
:1016F200E00DE10D83160313A00B742B0130A6023B
:101702002608031D852B862B722B250803198A2B8D
:101712008B2B982B83120313DE09DF09E009E10901
:10172200DE0A0319DF0A0319E00A0319E10A0800B5
:1017320083120313061A9E2B9F2B422CFC18A22BFA
:10174200A32BA42B422C64007C18A82BA92BAD2B15
:101752008312031310147C14831203138613640080
:10176200831203130814033083120313BE000830DC
:10177200BD007630BC00BC0BBC2BBD0BBC2BBE0B22
:10178200BC2B0000831203138617081064000A168C
:101792008A1173250A128A1583120313AB01AB0A4D
:1017A20001300A128A15B5200A128A151C308312DA
:1017B2000313AC008030AD000A168A1122270A12E8
:1017C2008A1583120313AB01AB0A02300A128A157F
:1017D200B5200A128A1564000430831203136606C8
:1017E2006704031DF52BF62B2C2C0A128A111726DF
:1017F2000A128A15831203133408C0003308BF008B
:101802003F0840040319062C072C082C322C0A1618
:101812008A1173250A128A1583120313AB01AB0ACC
:1018220001300A128A15B5200A128A151C30831259
:101832000313AC008030AD000A168A1122270A1267
:101842008A1583120313AB01AB0A02300A128A15FE
:10185200B5200A128A150A128A15EC250A128A156F
:10186200EC2B6400023083120313BE008630BD00ED
:101872009830BC00BC0B3B2CBD0B3B2CBE0B3B2C55
:101882000000080064008B1C472C482C922C8B1003
:101892007C1D4C2C4D2CE52CFC1C502C512C532C1B
:1018A200E52CE52C8312031386130814FC140A1684
:1018B2008A1166250A128A15F401F40A01300A1601
:1018C2008A11AE270A128A157630F5008030F600AA
:1018D2000A168A11E0260A128A15F401F40A023065
:1018E2000A168A11AE270A128A157E30F500803058
:1018F200F6000A168A11E0260A128A1564000830D8
:1019020083120313A2009D30A1000530A000A00B9A
:10191200882CA10B882CA20B882C83120313861708
:101922000810831203130C1C972C982CB42C0C1047
:10193200DC308E000B308F000130E2070318E30A1F
:101942000030E307143062066304031DA92CAA2C9D
:10195200E52C7C1CAD2CAE2CB02C8B1688141010F0
:10196200E201E301E52C0B1DB72CB82CE52C0B1181
:1019720081010130E4070318E50A0030E507E83089
:101982006406033003196506031DC82CC92C522CAA
:10199200E401E5010310081C03140318D12CD52C13
:1019A200831203130814D82C831203130810031094
:1019B200861F03140318DE2CE22C831203138617EE
:1019C200E52C831203138613831203132608FF00E8
:1019D20025088A0024088400230E8300FE0E7E0E52
:1019E200090083160313B600AC30AE002E08B10016
:1019F200D52D253037060319FF2C002D0C2D370865
:101A0200AE00360884002E08831380000130AE0039
:101A12002E08B607D52DB2010130AB07FF302B07D8
:101A220084000A128A150A200A128A15B700AE002B
:101A3200AF012F08003A03191F2DD52D2E08003AA9
:101A42000319E72D643A03192A2D0D3A03192A2D99
:101A5200D52D3108840083130008B400840A0008DD
:101A6200B5000230AE002E08B107B51F392D3A2D50
:101A7200432D0330AE002E08B204B409B509B40AEE
:101A82000319B50AB701B70A3708AE002E07013E9F
:101A920084000A128A150A200A128A15AF000A1255
:101AA2008A150A200A128A15B00030083502031D71
:101AB2005C2D2F08340203185F2D602D612D6B2DD4
:101AC2000130AE002E08B70705303706031D6A2D18
:101AD2006B2D452D320803390319702D712D7C2D84
:101AE2002D30AE00360884002E08831380000130AA
:101AF200AE002E08B6073708AE002E08B300CC2D74
:101B02000A3083120313AF000030B00083160313B0
:101B12003308AE002E07013E84000A128A150A20FD
:101B22000A128A1583120313A7000A128A150A20C1
:101B32000A128A15A80083160313350883120313A9
:101B4200AA0083160313340883120313A9000A168A
:101B52008A1168270A128A15831203132808B20011
:101B62002708B1000A168A1167260A128A158312FB
:101B720003132F08303E83160313AF002F08B7005C
:101B82003708AE00360884002E0883138000013027
:101B9200AE002E08B607FF30AE002E08B307330A98
:101BA200031DD42DD52D812D0130AB07FF302B071E
:101BB20084000A128A150A200A128A15AE002E081B
:101BC200B7003708031DE62DE72DFA2C36088400EE
:101BD2008313800108006400831203138713071321
:101BE20087120716871DF62DF72D1C2E6608AC00EE
:101BF2002C07D23E8400013083138000840A003017
:101C020080000130E6070318E70A0030E7073130A9
:101C12000A168A11A3260A128A15033083120313A5
:101C2200AE008A30AD005530AC00AC0B162EAD0BB9
:101C3200162EAE0B162E83120313871C212E222E74
:101C4200472E6608AC002C07D23E84000230831374
:101C52008000840A003080000130E6070318E70A9A
:101C62000030E70732300A168A11A3260A128A15B3
:101C7200033083120313AE008A30AD005530AC003E
:101C8200AC0B412EAD0B412EAE0B412E8312031332
:101C9200071D4C2E4D2E722E6608AC002C07D23E2C
:101CA2008400033083138000840A003080000130F6
:101CB200E6070318E70A0030E70733300A168A11ED
:101CC200A3260A128A15033083120313AE008A3048
:101CD200AD005530AC00AC0B6C2EAD0B6C2EAE0BC8
:101CE2006C2E831203138713071307128716871D9F
:101CF2007B2E7C2EA12E6608AC002C07D23E8400DF
:101D0200043083138000840A003080000130E6072B
:101D12000318E70A0030E70734300A168A11A326AF
:101D22000A128A15033083120313AE008A30AD0003
:101D32005530AC00AC0B9B2EAD0B9B2EAE0B9B2EED
:101D420083120313871CA62EA72ECC2E6608AC0086
:101D52002C07D23E8400053083138000840A0030B1
:101D620080000130E6070318E70A0030E707353044
:101D72000A168A11A3260A128A1503308312031344
:101D8200AE008A30AD005530AC00AC0BC62EAD0BA8
:101D9200C62EAE0BC62E83120313071DD12ED22ED2
:101DA200F72E6608AC002C07D23E8400063083135F
:101DB2008000840A003080000130E6070318E70A39
:101DC2000030E70736300A168A11A3260A128A154E
:101DD200033083120313AE008A30AD005530AC00DD
:101DE200AC0BF12EAD0BF12EAE0BF12E83120313C1
:101DF2008713871207120717871D002F012F262F1F
:101E02006608AC002C07D23E8400073083138000A2
:101E1200840A003080000130E6070318E70A003028
:101E2200E70737300A168A11A3260A128A150330E9
:101E320083120313AE008A30AD005530AC00AC0BF8
:101E4200202FAD0B202FAE0B202F83120313871CE4
:101E52002B2F2C2F512F6608AC002C07D23E84006A
:101E6200083083138000840A003080000130E607C6
:101E72000318E70A0030E70738300A168A11A3264A
:101E82000A128A15033083120313AE008A30AD00A2
:101E92005530AC00AC0B4B2FAD0B4B2FAE0B4B2F79
:101EA20083120313071D562F572F7C2F6608AC0091
:101EB2002C07D23E8400093083138000840A00304C
:101EC20080000130E6070318E70A0030E7073930DF
:101ED2000A168A11A3260A128A15033083120313E3
:101EE200AE008A30AD005530AC00AC0B762FAD0B96
:101EF200762FAE0B762F8312031307138712071266
:101F02008717871D852F862FAB2F6608AC002C07FD
:101F1200D23E84000A3083138000840A003080009D
:101F22000130E6070318E70A0030E7072A300A16ED
:101F32008A11A3260A128A15033083120313AE00F4
:101F42008A30AD005530AC00AC0BA52FAD0BA52FE0
:101F5200AE0BA52F83120313871CB02FB12FD42FE2
:101F62006608AC002C07D23E840083138001840AE9
:101F720080010130E6070318E70A0030E707303036
:101F82000A168A11A3260A128A1503308312031332
:101F9200AE008A30AD005530AC00AC0BCE2FAD0B8D
:101FA200CE2FAE0BCE2F83120313071DD92FDA2F9C
:101FB200FF2F6608AC002C07D23E84000C3083133E
:101FC2008000840A003080000130E6070318E70A27
:101FD2000030E70723300A168A11A3260A128A154F
:101FE200033083120313AE008A30AD005530AC00CB
:0E1FF200AC0BF92FAD0BF92FAE0BF92F080039
:102ACC0000300A168A11CB250A168A1101300A1613
:102ADC008A11CB250A168A11080000300A128A15B1
:102AEC0099200A168A1101300A128A1599200A16A1
:102AFC008A1108007F3083160313860088010F307B
:102B0C0087007F30810001178B170B160B170C14E5
:102B1C0008000A168A1180250A168A110A168A11CB
:102B2C009F250A168A110A168A11B4250A168A11CB
:102B3C000800831603131F149F141F159F1583126F
:102B4C0003131F139F13831603139F138312031373
:102B5C009E011F149F111F129F1208008312031352
:102B6C00901010169016DC308E000B308F008316F0
:102B7C0003138115011481140115831203138101B0
:102B8C0083160313811201120800F300831203133E
:102B9C00881173080A168A11E5250A168A11831200
:102BAC00031308150630F2003030F100F10BDC2D68
:102BBC00F20BDC2D00008312031308110800F00047
:102BCC00701CE92DEA2DEE2D831203130816F12D3E
:102BDC00831203130812F01CF42DF52DF72D881613
:102BEC00F82D8812701DFB2DFC2DFE2D0817FF2DC6
:102BFC000813F01D022E032E052E8817062E88139F
:102C0C00080083120313AF00AB01AC012708A90025
:102C1C00AA012908AD002A08AE002F1C162E172E6B
:102C2C001D2E2D08AB070318AC0A2E08AC0701307B
:102C3C000310AD0DAE0DFF3E031D1E2E0310AF0C89
:102C4C002F08031D2A2E2B2E132E2C08A8002B0820
:102C5C00A7000800F40074080F39F1007108F200A5
:102C6C007408F039F1007108F3008312031388150E
:102C7C007308F10004300310F10CFF3E031D412ECC
:102C8C0071080A168A11E5250A168A118312031394
:102C9C0008150D30F100F10B512E8312031308119E
:102CAC0072080A168A11E5250A168A118312031373
:102CBC0008150D30F100F10B612E8312031308116E
:102CCC000800831203132F08300403196E2E6F2E85
:102CDC009E2EB401B40A7D2E01300310AF0DB00D41
:102CEC00FF3E031D732E0130B3003308B407B01F31
:102CFC00802E812E722E30083202031D872E2F0853
:102D0C003102031C8A2E8B2E912E2F08B102300813
:102D1C00031CB203B20201300310B00CAF0CFF3E27
:102D2C00031D922E0130B402031D9D2E9E2E812E6A
:102D3C003208B0003108AF00080083120313AB0057
:102D4C002B080F39A8002808A9002B08F039A80077
:102D5C002808AA0088152A08A80004300310A80C1B
:102D6C00FF3E031DB42E28080A128A11DF270A160B
:102D7C008A118312031308150C3083120313A80055
:102D8C00A80BC62E000083120313081129080A127F
:102D9C008A11DF270A168A118312031308150C30C7
:102DAC0083120313A800A80BD92E0000831203135F
:102DBC0008110800FA01FB01052F7A087507F800C5
:102DCC007608F7000318F70AFA1FED2EF7037708B9
:102DDC00F900790883120313FF00780884000A12A3
:102DEC008A1500200A168A110A168A1130260A162C
:102DFC008A110130FA070318FB0A0030FB077A0826
:102E0C007507F8007608F7000318F70AFA1F0F2F5A
:102E1C00F7037708F900790883120313FF00780889
:102E2C0084000A128A1500200A168A11003A031D22
:102E3C00202F212FE32E080083120313B101B201BE
:102E4C004B2F31082C07AF002D08AE000318AE0A2B
:102E5C00B11F312FAE03831203132E08B0003008BC
:102E6C00FF002F0884000A128A1500200A168A1106
:102E7C000A168A11A3260A168A110130831203132B
:102E8C00B1070318B20A0030B20731082C07AF00A3
:102E9C002D08AE000318AE0AB11F552FAE038312D6
:102EAC0003132E08B0003008FF002F0884000A120C
:102EBC008A1500200A168A11003A031D662F672F07
:102ECC00272F080083120313AC01AD012708280437
:102EDC000319712F722FA92FAE01AE0A802F01306A
:102EEC000310A70DA80DFF3E031D762F0130AB007C
:102EFC002B08AE07A81F832F842F752F01300310CA
:102F0C00AC0DAD0DFF3E031D852F28082A02031DB5
:102F1C00912F27082902031C942F952F9C2F2708EB
:102F2C00A9022808031CAA03AA022C1401300310BE
:102F3C00A80CA70CFF3E031D9D2F0130AE02031DF4
:102F4C00A82FA92F842F2D08A8002C08A700080053
:102F5C00F7007703031DB32FB42FD72F74087F3ED0
:102F6C00F5007508FA007A08F50004300310F50C2A
:102F7C00FF3E031DBC2F7508F6007608F8007A0892
:102F8C000F39F5007508F90078080A168A11CB2557
:102F9C000A168A1179080A168A11CB250A168A1183
:102FAC00FF2F02307706031DDC2FDD2FFF2F740857
:102FBC00BF3EF5007508FA007A08F50004300310DE
:102FCC00F50CFF3E031DE52F7508F6007608F8009A
:102FDC007A080F39F5007508F90078080A168A1175
:102FEC00CB250A168A1179080A168A11CB250A16DE
:042FFC008A1108002E
:02400E00F63F7B
:00000001FF
