:020000040000FA
:100000000E28A200FF30A100FF30A0000000A00BCE
:100010000628A10B0428A20B0228080085018601EE
:1000200087018801890183160313FF3086000030A1
:100030008700003085000030880000308100831286
:1000400003130608061C33280608861C41280608E8
:10005000061D5D282128880A0130012021288803F7
:100060000130012021285628081C2B2888182B280D
:1000700008192B28881D2B280730880701300120FC
:1000800021284F2808182F2888182F2808192F28CA
:1000900088192F28073088020130012021280808FC
:1000A000003C031D42280130012021280808993C0A
:1000B000031D34280130012021280808A3008801ED
:1000C00061280608861D65286128081C7228881882
:1000D000722808197228881D722807308807013095
:1000E00001207628880A013001207628230808029A
:1000F000031D6128880107160830012007122128F6
:040100000034003493
:02400E00393F38
:00000001FF
