:020000040000FA
:020000003128A5
:040002000034003492
:08000800F000030EF1000408F2
:10001000F2000A08F3008A0183018B1C142888105F
:100020000814061C11288B1073088A0072088400BB
:10003000710E8300F00E700E0900A400FF30A100C5
:10004000FF30A0000000A00B2228A10B2028A40B49
:100050001E2808008814081008301D208810081475
:100060000800850186018701880189018316031331
:10007000003085000730860000308700003088009F
:10008000003089000030810090308B0000308C00FF
:1000900000308D0007309F0007309C0000309D002D
:1000A0008312031386185228061952282A20522830
:02400E00393F38
:00000001FF
